DTL   ABCDEFG      1101   0020120202231212     ABCD ABCDE  PC  PA   SEL                    PAA       054810273CA201206110000100.00CHCK                 000000123          
DTL   ABCDEFG      11010000020120202231212     ABCD ABCDE  PC  PA   SEL                    PAA       054810274CA201206110000100.00CHCK                 000000123          
DTL   ABCDEFG      11010000020120202231212     ABCD ABCDE  PC  PA   SEL                    PAA       054810275CA201206110000100.00CHCK                 000000123          
DTL   ABCDEFG      11010000020120202231212   ABCD   ABCDE  PC  PA   SEL                    PAA       054810276CA201206110000100.00CHCK                 000000123          
DTL   ABCDEFG      11010000020120202231212     ABCD ABCDE  PC  PA   SEL                    PAA       054810277CA201206110000100.00CHCK                 000000123          
DTL   ABCDEFG      11010000020120202231212     ABCD ABCDE  PC  PA   SEL                    PAA       054810278CA201206110000100.00CHCK                 000000123          
DTL   ABCDEFG      11010000020120202231212     ABCD ABCDE  PC  PA   SEL                    PAA       054810279CA201206110000100.00CHCK                 000000123          
DTL   ABCDEFG      11010000020120202231212     ABCD ABCDE  PC  PA   SEL                    PAA       054810280CA201206110000100.00CHCK                 000000123          
DTL   ABCDEFG      11010000020120202231212     ABCD ABCDE  PC  PA   SEL                    PAA       054810281CA201206110000100.00CHCK                 000000123          
DTL   ABCDEFG      11010000020120202231212     ABCD ABCDE  PC  PA   SEL                    PAA       054810282CA201206110000100.00CHCK                 000000123          
DTL   ABCDEFG      11010000020120202231212     ABCD ABCDE  PC  PA   SEL                    PAA       054810283CA201206110000100.00CHCK                 000000123          
DTL   ABCDEFG      11010000020120202231212     ABCD ABCDE  PC  PA   SEL                    PAA       054810284CA201206110000100.00CHCK                 000000123          
DTL   ABCDEFG      11010000020120202231212     ABCD ABCDE  PC  PA   SEL                    PAA       054810285CA201206110000100.00CHCK                 000000123          
DTL   ABCDEFG      11010000020120202231212     ABCD ABCDE  PC  PA   SEL                    PAA       054810286CA201206110000100.00CHCK                 000000123          
DTL   ABCDEFG      11010000020120202231212     ABCD ABCDE  PC  PA   SEL                    PAA       054810287CA201206110000100.00CHCK                 000000123          
DTL   ABCDEFG      11010000020120202231212     ABCD ABCDE  PC  PA   SEL                    PAA       054810288CA201206110000100.00CHCK                 000000123          
DTL   ABCDEFG      11010000020120202231212     ABCD ABCDE  PC  PA   SEL                    PAA       054810289CA201206110000100.00CHCK                 000000123          
DTL   ABCDEFG      11010000020120202231212     ABCD ABCDE  PC  PA   SEL                    PAA       054810290CA201206110000100.00CHCK                 000000123          
DTL   ABCDEFG      11010000020120202231212     ABCD ABCDE  PC  PA   SEL                    PAA       054810291CA201206110000100.00CHCK                 000000123          
DTL   ABCDEFG      11010000020120202231212     ABCD ABCDE  PC  PA   SEL                    PAA       054810292CA201206110000100.00CHCK                 000000123          
DTL   ABCDEFG      11010000020120202231212     ABCD ABCDE  PC  PA   SEL                    PAA       054810293CA201206110000100.00CHCK                 000000123          
DTL   ABCDEFG      11010000020120202231212     ABCD ABCDE  PC  PA   SEL                    PAA       054810294CA201206110000100.00CHCK                 000000123          
DTL   ABCDEFG      11010000020120202231212     ABCD ABCDE  PC  PA   SEL                    PAA       054810295CA201206110000100.00CHCK                 000000123          
DTL  ABCDEFG       11010000020120202231212     ABCD ABCDE  PC  PA   SEL                    PAA       054   296CA201206110000100.00CHCK                 000000123          
                                                                                                                                                                          
